:100000000C94F7000C9405100C94DE0F0C941F0157
:100010000C941F010C941F010C941F010C941F01E0
:100020000C941F010C941F010C941F010C941F01D0
:100030000C941F010C941F010C941F010C941F01C0
:100040000C94940F0C941F010C94620F0C943C0FB1
:100050000C941F010C941F010C941F010C941F01A0
:100060000C942C100C941F0107634236B79BD8A741
:100070001A39685618AEBAAB558C1D3CB7CC5763CD
:10008000BD6DEDFD753EF6177231BF000000803F7B
:1000900008000000BE922449123EABAAAA2ABECD97
:1000A000CCCC4C3E00000080BEABAAAAAA3E000009
:1000B0000000BF000000803F000000000008417801
:1000C000D3BB4387D1133D190E3CC3BD4282AD2B38
:1000D0003E68EC8276BED98FE1A93E4C80EFFFBE30
:1000E00001C4FF7F3F00000000001F1C1F1E1F1ED9
:1000F0001F1F1E1F1E1F000000080002010000033A
:100100000407000000000000000052544320696E04
:10011000697420444F4E450030313A31343A30341E
:1001200000417567203137203230323000636F6D07
:1001300070696C65643A2000506C616E7420576180
:10014000746572696E67204175746F6D6174696F53
:100150006E00253032752F253032752F25303475DD
:1001600020253032753A253032753A253032750007
:100170004F6861796F6F00456E746572696E6720B4
:10018000536C6565700050756D70204F6666005049
:10019000756D70204F6E202D202D202D202D202DAF
:1001A000203E20000000000023002600290000005F
:1001B0000000240027002A0000000000250028007D
:1001C0002B000404040404040404020202020202D8
:1001D000030303030303010204081020408001020B
:1001E00004081020010204081020471105171124EB
:1001F0001FBECFEFD8E0DEBFCDBF12E0A0E0B1E080
:10020000E8ECFFE302C005900D92AC3CB107D9F7D2
:1002100024E0ACECB2E001C01D92AE35B207E1F7CC
:1002200010E0C6EFD0E004C02197FE010E94731ECB
:10023000C53FD107C9F70E9443120C94D71F0C94F5
:1002400000008230910538F0880F991F880F991FA0
:1002500005970197F1F70895AF92BF92CF92DF9281
:10026000EF92FF920F931F93CF93DF936C017B016B
:100270008B01040F151FEB015E01AE18BF08C017FC
:10028000D10759F06991D601ED91FC910190F0816F
:10029000E02DC6010995892B79F7C501DF91CF9132
:1002A0001F910F91FF90EF90DF90CF90BF90AF9094
:1002B00008958091470390914803019690934803D5
:1002C0008093470381E0809346030895FC01538D9A
:1002D000448D252F30E0842F90E0821B930B541720
:1002E00010F0CF96089501970895FC01918D828DAD
:1002F000981761F0A28DAE0FBF2FB11D5D968C9146
:10030000928D9F5F9F73928F90E008958FEF9FEF84
:100310000895FC01918D828D981731F0828DE80F40
:10032000F11D858D90E008958FEF9FEF0895FC01FA
:10033000918D228D892F90E0805C9F4F821B9109C7
:100340008F73992708958DE493E00E94970121E02F
:10035000892B09F420E0822F089580E090E0892B1A
:1003600029F00E94A30181110C9400000895FC0162
:10037000A48DA80FB92FB11DA35ABF4F2C91848D06
:1003800090E001968F739927848FA689B7892C9363
:10039000A089B1898C91837080648C93938D848DB6
:1003A000981306C00288F389E02D80818F7D8083B9
:1003B0000895EF92FF920F931F93CF93DF93EC0179
:1003C00081E0888F9B8D8C8D98131AC0E889F989FC
:1003D000808185FF15C09FB7F894EE89FF896083FF
:1003E000E889F98980818370806480839FBF81E080
:1003F00090E0DF91CF911F910F91FF90EF900895C2
:10040000F62E0B8D10E00F5F1F4F0F731127E02E9C
:100410008C8D8E110CC00FB607FCFACFE889F989D4
:10042000808185FFF5CFCE010E94B701F1CFEB8D22
:10043000EC0FFD2FF11DE35AFF4FF0829FB7F894A8
:100440000B8FEA89FB8980818062CFCF0F931F9346
:10045000CF93DF938C01D0E0C0E0F801EC0FFD1FDB
:100460006491662341F08DE493E00E94D901892BC9
:1004700011F02196F2CFCE01DF91CF911F910F9114
:100480000895CF93DF93EC01888D8823B9F0AA8972
:10049000BB89E889F9898C9185FD03C0808186FD3F
:1004A0000DC00FB607FCF7CF8C9185FFF2CF80818E
:1004B00085FFEDCFCE010E94B701E9CFDF91CF914B
:1004C000089590E0FC01EA50FF4F2491FC01EA52AC
:1004D000FE4F3491FC01EE53FE4FE491EE23C9F040
:1004E000222339F0233001F1A8F4213019F1223010
:1004F00029F1F0E0EE0FFF1FE854FE4FA591B491F3
:100500008FB7F894EC91611126C030953E233C934F
:100510008FBF08952730A9F02830C9F0243049F75B
:10052000809180008F7D03C0809180008F778093C1
:100530008000DFCF84B58F7784BDDBCF84B58F7D1E
:10054000FBCF8091B0008F778093B000D2CF8091A5
:10055000B0008F7DF9CF3E2BDACFCF93DF9390E0C1
:10056000FC01EA52FE4F24918E539E4FFC01849170
:100570008823D1F090E0880F991FFC01E255FE4FCF
:10058000A591B491FC01E854FE4FC591D49162301D
:1005900071F49FB7F8943C91822F809583238C93BC
:1005A000E8812E2B28839FBFDF91CF9108958FB7CD
:1005B000F894EC912E2B2C938FBFF6CF3FB7F89485
:1005C0008091420390914303A0914403B09145036D
:1005D00026B5A89B05C02F3F19F00196A11DB11D9E
:1005E0003FBFBA2FA92F982F8827BC01CD01620FDA
:1005F000711D811D911D42E0660F771F881F991F95
:100600004A95D1F708958F929F92AF92BF92CF9261
:10061000DF92EF92FF924B015C010E94DE026B01C0
:100620007C010E94DE026C197D098E099F09683EDB
:10063000734081059105A8F321E0821A9108A10871
:10064000B10888EEC80E83E0D81EE11CF11C8114AD
:100650009104A104B10429F7FF90EF90DF90CF90AF
:10066000BF90AF909F908F9008952FB7F8946091AE
:100670003E0370913F0380914003909141032FBF4F
:1006800008950895DC0150E0EAEEF0E081E086177D
:1006900030F49491490F511D8F5F3196F8CF63303C
:1006A00038F0CD0183709927892B11F44F5F5F4F8C
:1006B0009D012D5F3F4F36952795369527956DE621
:1006C00071E0A69FC001A79F900DB69F900D1124C9
:1006D0000197820F931F840F951F08954F925F9289
:1006E0006F927F928F929F92AF92BF92CF92DF9242
:1006F000EF92FF92CF93DF93EC016A017B012CE331
:10070000822E912CA12CB12CCB01BA01A501940110
:100710000E94181E6D83CA01B901A50194010E94AF
:10072000181E6C83C701B60120E13EE040E050E0B6
:100730000E94181ECA01B90128E130E040E050E0F3
:100740000E94181E6B83C701B60120E831E541E025
:1007500050E00E94181E188263E9862E6EEF962ED6
:10076000AA24AA94BA2C8881782F7370C12CD12C1A
:100770007601C394772319F0C12CD12C7601260180
:1007800037019DE6490E91E0591E611C711C24152C
:1007900035054605570578F0240135014C185D08EC
:1007A0006E087F08730162012C0D3D1D4E1D5F1DFB
:1007B0008F5F8883D8CF81E089836981862F8150BC
:1007C000990BFC01E651FF4FE491711103C06230B7
:1007D00009F4EF5F8E2F90E0B0E0A0E02817390712
:1007E0004A075B0738F0281B390B4A0B5B0B6F5F1E
:1007F0006983E3CF2F5F2A83DF91CF91FF90EF9042
:10080000DF90CF90BF90AF909F908F907F906F9030
:100810005F904F900895EF92FF920F931F93CF93A5
:10082000DF93EC0188814A81698190E00E94420354
:100830009C01A8E1B0E00E94591E2B817B018C0134
:10084000E20EF11C011D111DA8019701ACE3B0E0FF
:100850000E94681E2C817B018C01E20EF11C011D9F
:10086000111DA80197010E94681E2D81620F711D44
:10087000811D911DDF91CF911F910F91FF90EF90FE
:100880000895FC019F012F5F3F4F80818F7E803252
:1008900069F080E02AE0919130ED390F3A3040F470
:1008A000829F900D112480ED890FF5CFF901EACFD9
:1008B00008952091F302260F3327331F213231058B
:1008C000ECF420911703FC0190E080E0243069F003
:1008D00082E00895A091F3022191AC014D525D4F49
:1008E000A40FB52FB11D2C930196861798F3809114
:1008F000F302680F6093F30280E0089581E00895A9
:1009000008958FEF9FEF08958FEF9FEF08958091E7
:10091000CC0290E09195819591090895CF93DF9352
:10092000CB01EA01642F0E945904CE01DF91CF91DF
:100930000895CF93DF931F92CDB7DEB7698361E04F
:10094000CE0101960E94590481E090E00F90DF9162
:10095000CF910895CF92DF92EF92FF920F931F9362
:10096000CF93DF93EC01EA89FB8990818F85809595
:1009700089238083EE89FF8980819F85892B8083ED
:10098000E889F98990818E85809589238083EC8917
:10099000FD8980819E85892B80838D8D9E8D00971A
:1009A00011F00E942101EE89FF8990818F85809549
:1009B000892380838F8D882331F0EA89FB898081A8
:1009C0009F85892B808388A18823C9F00E943503E5
:1009D0006B017C01EA8DFB8D80819F85892379F4F1
:1009E0000E9435036C197D098E099F0909A11AA17E
:1009F0002BA13CA1601771078207930758F38D8DD7
:100A00009E8D009711F00E942101EC89FD89908153
:100A10008E858095892380838F8D882331F0E889A6
:100A2000F98980819E85892B80838D8D9E8D00978D
:100A300051F0DF91CF911F910F91FF90EF90DF90D8
:100A4000CF900C942101DF91CF911F910F91FF90D6
:100A5000EF90DF90CF900895CF93DF93EC01EC8976
:100A6000FD8990818E858095892380838F8D882351
:100A700031F0E889F98980819E85892B8083EE8910
:100A8000FF8990818F858095892380838F8D88232E
:100A900031F0EA89FB8980819F85892B80838D8D48
:100AA0009E8D009711F00E942101E88DF98D9081B3
:100AB0008E859823EA8DFB8D20813F85232311F4B9
:100AC00080E028C09923E1F3E889F9899081809535
:100AD00089238083EC89FD8980819E85892B808391
:100AE0008D8D9E8D009711F00E942101EA89FB896E
:100AF00090818F85809589238083EE89FF8980810D
:100B00009F85892B80838D8D9E8D009711F00E948B
:100B1000210181E0DF91CF910895CF92DF92EF9292
:100B2000FF920F931F93CF93DF93EC01EC89FD8924
:100B300090818E858095892380838F8D882331F0E5
:100B4000E889F98980819E85892B8083EE89FF89D8
:100B500090818F858095892380838F8D882331F0C4
:100B6000EA89FB8980819F85892B808388A18823DE
:100B7000C9F00E9435036B017C01EA8DFB8D8081F9
:100B80009F85892379F40E9435036C197D098E09AC
:100B90009F0909A11AA12BA13CA160177107820727
:100BA000930758F38D8D9E8D009711F00E942101BF
:100BB000E88DF98D80819E85892311E009F410E08C
:100BC000EA89FB8990818F85809589238083EE89CE
:100BD000FF8980819F85892B80838D8D9E8D0097D5
:100BE00011F00E942101812FDF91CF911F910F9170
:100BF000FF90EF90DF90CF900895CF92DF92EF9229
:100C0000FF920F931F93CF93DF93EC018E85809516
:100C100061115EC0E889F989908189238083EC891C
:100C2000FD8980819E85892B80838D8D9E8D009787
:100C300011F00E942101EE89FF8990818F858095B6
:100C4000892380838F8D882331F0EA89FB89808115
:100C50009F85892B808388A18823C9F00E94350352
:100C60006B017C01EA8DFB8D80819F85892379F45E
:100C70000E9435036C197D098E099F0909A11AA1EB
:100C80002BA13CA1601771078207930758F38D8D44
:100C90009E8D009711F00E942101EA89FB899081C5
:100CA0008F85809589238083EE89FF8980819F8548
:100CB000892B80838D8D9E8D0097B1F0DF91CF9130
:100CC0001F910F91FF90EF90DF90CF900C94210136
:100CD000EC89FD899081892380838F8D882309F495
:100CE000A4CFE889F9899DCFDF91CF911F910F9112
:100CF000FF90EF90DF90CF9008950F931F93CF93C5
:100D0000DF938C01D62FC8E06D2F6078C8010E9458
:100D1000FD05DD0FC150C1F7C801DF91CF911F91D3
:100D20000F910C948D05CF93DF93EC011C8E0E94E4
:100D30002C05882369F060EDCE010E947D068111AB
:100D400004C01C8EDF91CF91089582E08C8FFACF82
:100D500084E0FCCF9C01FC01EA5BFF4F9081D9014C
:100D6000AB5BBF4F8C91981750F4290F311DD901FF
:100D700095962C9130E09F5F9083C90108952FEFE5
:100D80003FEFFBCFFC01EA5BFF4FE081DC01AB5B97
:100D9000BF4F2C91E21730F4E80FF92FF11D85A118
:100DA00090E008958FEF9FEF0895FC01EB5BFF4FFC
:100DB000208131969081422F491B550BCA0108951D
:100DC000CF93DF93FC01248D211106C0EC010E941A
:100DD0007D06811106C01C8E81E090E0DF91CF91ED
:100DE000089582E08C8FF8CF90E080E00895FC01B8
:100DF00083898B3051F480E492E4AFE0B0E0FB01F2
:100E000084A395A3A6A3B7A3089580E894E8AEE1D0
:100E1000B0E0F5CFCF92DF92EF92FF92CF93DF93C6
:100E2000DC011796CC911797D0E06111DC2F189652
:100E30002C91189730E0220F331F2C553E4F50E075
:100E400040E0F90185919491FC01F080BA0190E0B5
:100E500080E0EF2DEC23ED1310C04F5F5F4F1D9628
:100E6000CD90DD90ED90FC9050976C157D058E0532
:100E70009F0538F36FEF7FEFCB01DF91CF91FF90AC
:100E8000EF90DF90CF9008958F929F92AF92BF9294
:100E9000CF92DF92EF92FF920F931F93CF93DF9346
:100EA000CDB7DEB7C054D1400FB6F894DEBF0FBE49
:100EB000CDBF8C010E943503F801C184D284E38444
:100EC000F4849B01AC012C193D094E095F096901AD
:100ED0007A0130EDC31637E0D306E104F104A8F43B
:100EE0008189C05CDE4F0FB6F894DEBF0FBECDBF68
:100EF000DF91CF911F910F91FF90EF90DF90CF90F6
:100F0000BF90AF909F908F9008956187728783877D
:100F100094871482138212821182108262E085818A
:100F20000E94AD0261E070E080E090E00E94030367
:100F300061E0F80185810E94AD0260E0F8018581E1
:100F40000E946102F801868185518230E8F48BE2CB
:100F500091E10197F1F762E0F80185810E94AD020D
:100F6000F801828990E00E942101F89460E0C801B4
:100F70000E940A076F3F7F4F8F4F9F4F61F4F80128
:100F8000118A789480E0ADCF64E170E080E090E079
:100F90000E940303E0CF61E0C8010E940A076F3F8F
:100FA0007F4F8F4F9F4F59F39E012F5F3F4F790126
:100FB0005E013FEBA31A3EEFB30A670160E0C80190
:100FC0000E940A07F601608371838283938361E044
:100FD000C8010E940A07F60164837583868397839C
:100FE000F8E0CF0ED11CCA14DB0441F7789430E04E
:100FF00020E0F70180809180A280B38044815581F8
:1010000066817781FFEF8F169F06AF06BF0631F02E
:101010004F3F8FEF58076807780719F4F801118AD6
:10102000B1CFF90183E0F595E7958A95E1F7E00FF7
:10103000F11F8081880F84169506A606B706F0F08A
:1010400080832F5F3F4FF8E0EF0EF11C283231050F
:1010500081F6F801448120818181280F3327331FD5
:101060008281280F311D8381820F932F911D992733
:101070004817190699F681E0818B33CF8160E0CF64
:10108000089508957F928F929F92AF92BF92CF92D0
:10109000DF92EF92FF920F931F93CF93DF93EC01B8
:1010A000162F1C8E5C0185E4A80EB11CF501108280
:1010B00031961082CE010E942C05882309F452C07B
:1010C00061EDCE010E947D06811148C01C8E6E012B
:1010D000F12CE12C812F8150990B4C0100E088E02C
:1010E000782EE814F90484F5000FCE010E948D05D6
:1010F000082B7A947110F8CF60E0CE010E94FD05B4
:101100008D8D9E8D009711F00E942101F60105A39F
:10111000FFEFEF1AFF0A8FEFC81AD80AE116F0F2B4
:10112000F5011083CE010E94AA04812FDF91CF9197
:101130001F910F91FF90EF90DF90CF90BF90AF90F5
:101140009F908F907F900895000FCE010E948D0593
:10115000082B7A947110F8CF61E0CFCF82E08C8FAA
:1011600010E0E0CF84E0FBCFDF92EF92FF920F938D
:101170001F93CF93DF93CDB7DEB72C970FB6F894BC
:10118000DEBF0FBECDBF8091EA039091EB030E94BA
:1011900093068091EA039091EB03DC01ED91FC91C1
:1011A0000190F081E02D60E009950091EA03109133
:1011B000EB03C8010E94AA04F801848D8093EC031C
:1011C000882331F140E050E0BA01CE0101960E943F
:1011D0006E0386E0FE013196DE01179601900D92B6
:1011E0008A95E1F72F81388549855A856B857C85FD
:1011F00080E090E02C960FB6F894DEBF0FBECDBF16
:10120000DF91CF911F910F91FF90EF90DF900895A4
:1012100067E08091EA039091EB030E9442088730D7
:10122000A1F084E08093EC0340E050E0BA01CE01ED
:1012300007960E946E0386E0FE013796DE01119646
:1012400001900D928A95E1F7C4CF8091EA039091C5
:10125000EB03DC01ED91FC910284F385E02D09950F
:101260008F77282F30E0F4E035952795FA95E1F750
:10127000922F990F990F022F091B000F080F8091D1
:10128000EA039091EB03DC01ED91FC910284F3857C
:10129000E02D09959C01A4E035952795AA95E1F7E5
:1012A0002F703327922F990F990FF22EF91AFF0CF6
:1012B000F80E8091EA039091EB03DC01ED91FC9133
:1012C0000284F385E02D099586FF7CC0982F9F71DD
:1012D000292F30E0E4E035952795EA95E1F7322FA4
:1012E000330F330F122F131B110F190F85FD145FCE
:1012F0008091EA039091EB03DC01ED91FC91028473
:10130000F385E02D09958091EA039091EB03DC01D0
:10131000ED91FC910284F385E02D09959C0144E058
:10132000359527954A95E1F72F703327922F990F1E
:10133000990FE22EE91AEE0CE80E8091EA039091E3
:10134000EB03DC01ED91FC910284F385E02D09951E
:10135000D82E8091EA039091EB03DC01ED91FC9192
:101360000284F385E02D0995AC0164E0559547951D
:101370006A95E1F74F705527942F990F990F242FF5
:10138000291B220F280F30E0A9014053584FD7FEE8
:1013900002C04C595F4F8D2D8F77405D4F83282FB2
:1013A00030E094E0359527959A95E1F7922F990FC3
:1013B000990F291B220F280F2887E9861A87FB8699
:1013C0000C8710CF9C0174E0359527957A95E1F74D
:1013D0002F703327922F990F990F122F191B110F6E
:1013E000180F86CF1F93CF93DF93EC018091EA0310
:1013F0009091EB030E9493068091EA039091EB0396
:10140000DC01ED91FC910190F081E02D67E0099500
:10141000A091EA03B091EB032D811AE0822F612F96
:101420000E94E41D682F660F680F660F620F8881A7
:1014300099819695982F882797958795682BED9198
:10144000FC9111970190F081E02DCD010995A091BB
:10145000EA03B091EB032C81822F612F0E94E41DDF
:10146000682F660F680F660F620F8881998136E0DA
:10147000880F991F3A95E1F78078682BED91FC91E0
:1014800011970190F081E02DCD010995A091EA031B
:10149000B091EB032B81822F612F0E94E41D682FF6
:1014A000660F680F660F620F8881998145E0880F8B
:1014B000991F4A95E1F78078682BED91FC9111977F
:1014C0000190F081E02DCD0109954A812881398173
:1014D0002830310519F4411101C047E0A091EA0319
:1014E000B091EB03842F6AE00E94E41D682F660F21
:1014F000680F660F640F83E0220F331F8A95E1F7B0
:10150000207C622BED91FC9111970190F081E02DF0
:10151000CD010995C091EA03D091EB03CE010E9461
:10152000AA048C8D8093EC03DF91CF911F910895D5
:10153000CF93DF93C82F8091EA039091EB030E9431
:1015400093068091EA039091EB03DC01ED91FC910D
:101550000190F081E02D6C2F0995C091EA03D091A4
:10156000EB03CE010E94AA04CC8DC093EC03C11101
:101570001DC061E08091EA039091EB030E94420854
:10158000813039F084E08093EC038C2FDF91CF9190
:1015900008958091EA039091EB03DC01ED91FC91B9
:1015A0000284F385E02D0995C82FEFCFC0E0EDCF81
:1015B0000F931F93CF93DF93082F162FCAEED3E01C
:1015C000888199810E94930688819981DC01ED913F
:1015D000FC910190F081E02D602F0995888199811F
:1015E000DC01ED91FC910190F081E02D612F0995D6
:1015F00008811981C8010E94AA04F801848D8A8398
:10160000DF91CF911F910F910895CF938FE00E94AA
:10161000980AC82F682F6C7F8FE00E94D80AC37089
:101620008C2F90E0CF910895FF920F931F93CF934B
:10163000DF93EC018FE00E94980A682F6F778FE0AC
:101640000E94D80A8091EA039091EB030E949306CE
:101650008091EA039091EB03DC01ED91FC91019004
:10166000F081E02D60E00995A091EA03B091EB03D1
:101670002D811AE0822F612F0E94E41D682F660FD2
:10168000680F660F620FED91FC9111970190F08148
:10169000E02DCD010995A091EA03B091EB032C81D7
:1016A000822F612F0E94E41D682F660F680F660F5E
:1016B000620FED91FC9111970190F081E02DCD0129
:1016C0000995A091EA03B091EB032B81822F612F42
:1016D0000E94E41D682F660F680F660F620FED9180
:1016E000FC9111970190F081E02DCD010995888141
:1016F0001CE9180F90E8F92E843610F4182FF12CFD
:101700004A81698190E00E944203069667E070E09A
:101710000E94F01D682F811101C067E08091EA03EB
:101720009091EB03DC01ED91FC910190F081E02DB3
:101730000995A091EA03B091EB032A810AE0822F78
:10174000602F0E94E41D682F660F680F660F620FFE
:10175000ED91FC9111970190F081E02DCD0109955B
:10176000A091EA03B091EB032981822F602F0E94A0
:10177000E41D682F660F680F660F620F6F29ED91E9
:10178000FC9111970190F081E02DCD010995A09178
:10179000EA03B091EB03812F602F0E94E41D682FB4
:1017A000660F680F660F610FED91FC911197019024
:1017B000F081E02DCD010995C091EA03D091EB03B2
:1017C000CE010E94AA048C8D8093EC03DF91CF910F
:1017D0001F910F91FF900895FC0101900020E9F7FF
:1017E0003197AF01481B590BBC018DE493E00C9479
:1017F0002C018F929F92AF92BF920F931F93CF9322
:10180000DF93CDB7DEB7A1970FB6F894DEBF0FBE5A
:10181000CDBF19A2423008F44AE08E010F5D1F4F80
:10182000842E912CB12CA12CA50194010E94181E8C
:10183000E62FB901CA01EA30F4F4E05DD801EE9375
:101840008D01232B242B252B79F790E080E0109736
:1018500019F0CD010E94EC0BA1960FB6F894DEBFF3
:101860000FBECDBFDF91CF911F910F91BF90AF9071
:101870009F908F900895E95CE1CFCF93DF930E9412
:10188000EC0BEC018AE491E00E94EC0B8C0F9D1FA5
:10189000DF91CF910895CF93DF930E942602EC0150
:1018A0008AE491E00E94EC0B8C0F9D1FDF91CF9199
:1018B00008951F93CF93DF9385ED8093BC008091B3
:1018C000CF029091D002A091D102B091D20207969E
:1018D000A11DB11D23E0B695A795979587952A95EB
:1018E000D1F72091BC0024FD03C01092170352C011
:1018F0004091CF025091D0026091D1027091D202FA
:10190000452B462B472B69F30097A105B10541F004
:1019100025E32A95F1F700000197A109B109E1CF6C
:101920008091CE02C1E0C093CD02882399F1D0917D
:10193000B8001091BA008091BC008A7B8093BC00F3
:1019400060E082E10E94610260E083E10E94610246
:1019500010921703C09319031092180361E082E1FB
:101960000E94610261E083E10E9461028091B900FE
:101970008E7F8093B9008091B9008D7F8093B900EC
:1019800088E48093B80085E48093BC001093BA008B
:10199000D093B800DF91CF911F910895CF92DF923D
:1019A000EF92FF920F931F93CF93DF938C01EB0184
:1019B000FB01349680E2DF011D928A95E9F784E20B
:1019C00090E0A0E0B0E088839983AA83BB83F8010C
:1019D00085819681A781B0858C839D83AE83BF83EB
:1019E0008CE090E0A0E0B0E088879987AA87BB8769
:1019F0000E943503688B798B8A8B9B8BD801139659
:101A00000D911C91C8010E944407882349F0F801F8
:101A100086818B3028F08D3040F08551823070F116
:101A200060E070E080EC9FE71BC0618170E090E0B7
:101A300080E00E94CB1A2DEC3CEC4CEC5DE30E9464
:101A40007B1B6B017C01F801608170E090E080E01D
:101A50000E94CB1A9B01AC01C701B6010E94221A59
:101A60006C8B7D8B8E8B9F8B81E0DF91CF911F9153
:101A70000F91FF90EF90DF90CF900895608171817A
:101A800076276727762790E080E00E94C91A2DEC20
:101A90003CEC4CEC5DE30E947B1BE2CF8F929F926B
:101AA000AF92BF92EF92FF921F93CF93DF937C018F
:101AB000EB01FB01349680E2DF011D928A95E9F784
:101AC00084E290E0A0E0B0E088839983AA83BB839E
:101AD000F70185819681A781B0858C839D83AE8334
:101AE000BF838DE090E0A0E0B0E088879987AA8767
:101AF000BB870E943503688B798B8A8B9B8BD701C0
:101B00001396ED90FC90C7010E944407882341F092
:101B1000F70186818C3009F455C038F48B30E1F040
:101B200060E070E080EC9FE73EC085518230C0F7F6
:101B30001281612F70E0762F662766277F77838179
:101B4000682B90E080E00E94C91A2DEC3CEC4CEC34
:101B50005DE30E947B1B51C0628170E090E080E0F9
:101B60000E94C91A4B015C01F701138117FF0AC0DB
:101B7000AC019B0160E070E080E89FEB0E94211ABD
:101B80004B015C011F70612F70E090E080E00E94CB
:101B9000CB1A2DEC3CEC4CEC5DE30E947B1BA501C9
:101BA00094010E94221A6C8B7D8B8E8B9F8B81E01F
:101BB000DF91CF911F91FF90EF90BF90AF909F90DA
:101BC0008F9008951281612F70E090E080E00E9474
:101BD000C91A4B015C01F70163816F7070E090E0FE
:101BE00080E00E94CB1A2DEC3CEC4CEC5DE30E94B3
:101BF0007B1BA50194010E94221A17FFD4CF905895
:101C0000D2CFCF93DF93EB01FC0183894BE050E00F
:101C100063E571E08C30C1F058F44BE050E06DE4C6
:101C200071E08B3089F04BE050E065E671E00CC06C
:101C30004BE050E069E571E0853131F04BE050E078
:101C40006FE571E0863179F7CE010E94A51F1B86F2
:101C5000DF91CF9108950F931F93CF93DF938C0162
:101C6000EB0188E2DB011D928A95E9F7F801838197
:101C700094810E94010E81E090E0A0E0B0E08C87AA
:101C80009D87AE87BF87F80185819681A781B08542
:101C9000888B998BAA8BBB8B8CE090E0A0E0B0E0A6
:101CA0008C8B9D8BAE8BBF8BBE01838194810E94F8
:101CB000F706D8011396ED91FC9183898C3009F4D5
:101CC00041C078F48B3009F1188E198E1A8E1B8E54
:101CD0001C8E1D8E1E8E1F8E18A219A21AA21BA268
:101CE0002CC08551823080F780E090E0A8ECB2E40F
:101CF000888F998FAA8FBB8F1C8E1D8E1E8E1F8E74
:101D00008DEC9CECACECBDE314C080E090E0A0EA6C
:101D1000B2E4888F998FAA8FBB8F80E090E0A0EA11
:101D2000B1E48C8F9D8FAE8FBF8F80E090E0A0EAF2
:101D3000B0E488A399A3AAA3BBA3DF91CF911F917D
:101D40000F91089580E090E0AEEBB2E4E2CF0F9304
:101D50001F93CF93DF938C01EB0188E2DB011D928F
:101D60008A95E9F7F801838194810E94010E81E050
:101D700090E0A0E0B0E08C879D87AE87BF87F80138
:101D800085819681A781B085888B998BAA8BBB8B27
:101D90008DE090E0A0E0B0E08C8B9D8BAE8BBF8B94
:101DA000BE01838194810E94F706D8011396ED91BC
:101DB000FC9183898C3091F178F48B30B1F0188EDE
:101DC000198E1A8E1B8E1C8E1D8E1E8E1F8E18A2B3
:101DD00019A21AA21BA21DC08531A9F1863179F77B
:101DE00080E090E0AAEFB2E432C080E090E0A8E4A6
:101DF000B2E4888F998FAA8FBB8F1C8E1D8E1E8E8A
:101E00001F8E80E090E0A0E0B0E488A399A3AAA38D
:101E1000BBA3DF91CF911F910F91089580E090E0D7
:101E2000A0E7B2E4888F998FAA8FBB8F80E090E003
:101E3000A0EAB1EC8C8F9D8FAE8FBF8F80E090E0D9
:101E4000A0E0BFE3E2CF80E090E0A0EAB2E4888FB8
:101E5000998FAA8FBB8F80E090E0A0E2B2EC8C8FCC
:101E60009D8FAE8FBF8F8DEC9CECACECBDE3CDCFE6
:101E70000C94151F0C94151F1F920F920FB60F9202
:101E800011242F933F934F935F936F937F938F937F
:101E90009F93AF93BF93EF93FF938DE493E00E94E2
:101EA000B701FF91EF91BF91AF919F918F917F917A
:101EB0006F915F914F913F912F910F900FBE0F90B7
:101EC0001F9018951F920F920FB60F9211242F9307
:101ED0008F939F93EF93FF93E0915D03F0915E03E7
:101EE0008081E0916303F091640382FD1BC09081C7
:101EF000809166038F5F8F7320916703821741F093
:101F0000E0916603F0E0E35BFC4F958F80936603FE
:101F1000FF91EF919F918F912F910F900FBE0F9096
:101F20001F9018958081F4CF1F920F920FB60F92D9
:101F300011242F933F938F939F93AF93BF938091DF
:101F40003E0390913F03A0914003B0914103309133
:101F50003D0323E0230F2D3758F50196A11DB11D38
:101F600020933D0380933E0390933F03A09340034F
:101F7000B09341038091420390914303A0914403A5
:101F8000B09145030196A11DB11D8093420390932A
:101F90004303A0934403B0934503BF91AF919F9136
:101FA0008F913F912F910F900FBE0F901F9018951A
:101FB00026E8230F0296A11DB11DD2CF1F920F92CA
:101FC0000FB60F9211242F933F934F935F936F930C
:101FD0007F938F939F93AF93BF93EF93FF93E09182
:101FE0000201F09103010995FF91EF91BF91AF912B
:101FF0009F918F917F916F915F914F913F912F9121
:102000000F900FBE0F901F9018951F920F920FB652
:102010000F9211242F933F934F935F936F937F936E
:102020008F939F93AF93BF93EF93FF93E091000142
:10203000F09101010995FF91EF91BF91AF919F91AF
:102040008F917F916F915F914F913F912F910F9061
:102050000FBE0F901F9018951F920F920FB60F9200
:1020600011242F933F934F935F936F937F938F939D
:102070009F93AF93BF93EF93FF938091B900887FB5
:10208000803609F44AC0F0F5883209F4A5C018F585
:10209000803109F499C0B8F4882309F4F5C0883078
:1020A00009F492C0FF91EF91BF91AF919F918F91F1
:1020B0007F916F915F914F913F912F910F900FBE44
:1020C0000F901F901895883109F486C0803251F71F
:1020D0008093160314C0803409F49BC040F480330D
:1020E000B9F38833F9F68093160385ECAEC08035DA
:1020F00009F483C0883509F494C0883499F60E94A5
:10210000590CD0CF883909F48AC038F5883729F0BE
:1021100050F4883611F0803729F683E08093170356
:102120001092150355C0883809F479C0803919F028
:10213000803809F0B7CF80911503803208F06FC066
:10214000E091150381E08E0F809315038091BB0011
:10215000F0E0EB50FD4F80833BC0803B39F0D0F482
:10216000803A09F477C0883A09F09CCF84E08093E4
:1021700017031092F4021092F302F0E0E0E00995E8
:102180008091F30281110FC081E08093F3021092DD
:10219000D30209C0803C09F4A8CF883C09F4A5CF3C
:1021A000883B09F07FCFE091F40281E08E0F8093AD
:1021B000F402F0E0ED52FD4F80818093BB009091DE
:1021C000F4028091F30229C080913C038093BB000C
:1021D00085EC8093BC0066CF90913B0380913A03DD
:1021E000981758F5E0913B0381E08E0F80933B03F5
:1021F000F0E0E65EFC4F8081E9CFE0913B0381E0B7
:102200008E0F80933B038091BB00F0E0E65EFC4FB5
:10221000808390913B0380913A039817C8F285E838
:10222000D8CFE0913B0381E08E0F80933B038091F8
:10223000BB00F0E0E65EFC4F8083809119038111C2
:102240005ECF81E08093180384EA8093BC001092F3
:10225000170328CF85EC8093BC0010921703809160
:102260001503803230F4E0911503F0E0EB50FD4FA0
:1022700010826091150370E085EF92E0F0E0E0E0FD
:102280000995109215030ECF1092160338CF0F93B5
:102290001F93EDE4F3E01382128248EE53E060E016
:1022A00070E044835583668377838EE091E0918369
:1022B000808385EC90E09587848784EC90E0978715
:1022C000868780EC90E0918B808B81EC90E0938B03
:1022D000828B82EC90E0958B848B86EC90E0978BE0
:1022E000868B118E128E138E148EA4E3B4E08AE0D6
:1022F00015968C93159786E116968C931697E0EEBB
:10230000F1E0E4911796EC931797ECECF1E0E4918F
:102310001896EC93189700E81EE320E030E01D9635
:102320000D931D932D933C93509753968C935397F5
:1023300080E491E055969C938E9354970A2E1B2E21
:1023400058961C920E92112457970FEF1FEF980189
:1023500059960D931D932D933C935C9782E391E0E6
:102360005E969C938E935D970A2E1B2E91961C92DF
:102370000E921124909792960D931D932D933C935A
:102380009597ADEEB3E013961C921E921297149699
:102390004D935D936D937C93179780E291E0119636
:1023A0009C938E9387E01C968C931C9788E01D96D7
:1023B0008C931D9781E05F968C935F9790968C939A
:1023C000909782E090E05E969C938E935D979196B5
:1023D0004D935D936D937C939497E9ECF1E0849138
:1023E000EDEDF1E0E4911E96EC931E9790E0880FDE
:1023F000991FFC01E854FE4F2591349151963C936E
:102400002E935097FC01E255FE4F2591349155963D
:102410003C932E935497FC01EC55FE4F859194917B
:1024200059969C938E935897EAECF1E08491EEEDE7
:10243000F1E0E4911F96EC931F9790E0880F991FAD
:10244000FC01E854FE4F2591349153963C932E9312
:102450005297FC01E255FE4F2591349157963C93DB
:102460002E935697FC01EC55FE4F859194915B9607
:102470009C938E935A97EAEEF3E0B183A083128285
:102480001F910F910895CF93DF93CDB7DEB7C95752
:10249000D1090FB6F894DEBF0FBECDBF789484B5D6
:1024A000826084BD84B5816084BD85B5826085BD50
:1024B00085B5816085BD80916E00816080936E00DE
:1024C00010928100809181008260809381008091D0
:1024D0008100816080938100809180008160809381
:1024E00080008091B10084608093B1008091B00041
:1024F00081608093B00080917A00846080937A003C
:1025000080917A00826080937A0080917A00816065
:1025100080937A0080917A00806880937A0010928C
:10252000C100E0915D03F0915E0382E08083E09161
:102530005903F0915A031082E0915B03F0915C0320
:1025400080E1808310926503E0916103F091620362
:1025500086E08083E0915F03F09160038081806179
:102560008083E0915F03F0916003808188608083C5
:10257000E0915F03F0916003808180688083E09147
:102580005F03F091600380818F7D80836BE18DE438
:1025900093E00E94D9018AE691E00E94EC0B6BE186
:1025A0008DE493E00E94D9018EE691E00E94EC0B4D
:1025B00088E391E00E944B0C8DE291E00E9426029C
:1025C00081E291E00E94260288E191E00E944B0C9A
:1025D00061E086E00E94AD0261E086E00E94610257
:1025E00062E082E00E94AD020091EA031091EB03E9
:1025F000F801EB5BFF4F108231961082D80156969E
:10260000ED91FC91579790811F968C911F97809523
:10261000892380835F968C915F97882349F0529637
:10262000ED91FC91539780811F969C91892B80831B
:10263000F801858D968D009711F00E942101D80137
:102640005496ED91FC91559790811E968C911E9712
:102650008095892380835F968C915F97882349F0CA
:102660005096ED91FC91519780811E969C91892BFB
:10267000808344E0F42EF801858D968D009711F04B
:102680000E942101FA94F110F6CFD8015F968C9147
:10269000882331F062E070E080E090E00E94030364
:1026A0008AE791E00E944104AC968FAFAC9788E036
:1026B000AD968FAFAD9785E791E00E944104AE964D
:1026C0008FAFAE978DE791E00E944104AF968FAF38
:1026D000AF9780E891E00E944104E0968FAFE097C9
:1026E00083E891E00E944104E1968FAFE1978FE08B
:1026F0000E94980A87FD04C08091EC038823A9F00A
:102700008091EC03882309F446C386E891E00E9497
:10271000EC0B6091EC0370E090E080E04AE00E94F6
:10272000F90B8AE491E00E94EC0B8EE00E94980A7B
:1027300087FD04C08091EC03882361F087EC91E071
:102740000E943D0C8EE00E94980A682F6F778EE001
:102750000E94D80A0E94B4081E01B7E52B0E311C56
:10276000F101208331834283538364837583C101E4
:102770000E940B046B017C01CE0185599F4F0E9482
:102780000B04C616D706E806F90648F482EF91E076
:102790000E943D0CCE0185599F4F0E94140B8FE083
:1027A0000E94980A682F677F8FE00E94D80A8EE007
:1027B0000E94980A8C7B682F65648EE00E94D80A7C
:1027C000C1010E940B04AB01BC01485F584F6F4F21
:1027D0007F4FCE01C3960E946E0388AD9FA92EA99C
:1027E0003DA944E150E05A8349833B832C839D8378
:1027F0008E838E010F5F1F4FC8010E94F2090E9455
:10280000050B89E591E0909301018093000180918F
:1028100069008C7F826080936900E89A8AE091E089
:102820000E944B0C61E084E00E94AD0261E085E013
:102830000E94AD0262E0809139040E94AD020E94C4
:102840003503605D77408109910960933D04709381
:102850003E0480933F049093400487E380934604B2
:1028600080914A048DAB80E491E09CAB8BAB80916E
:102870004B0490914C049FAB8EAB80914D04909192
:102880004E04A0914F04B091500488AF99AFAAAF05
:10289000BBAFB801CE01C3960E94A70E809153042E
:1028A0008DAB82E391E09CAB8BAB80915404909113
:1028B00055049FAB8EAB8091560490915704A09124
:1028C0005804B091590488AF99AFAAAFBBAFB80113
:1028D000CE01C3960E942B0E0E94B408E5962FAF3E
:1028E000E597E6963FAFE697E7964FAFE797E8960E
:1028F0005FAFE897E9966FAFE997EA967FAFEA97FF
:102900001F927F93E9968FADE9971F928F93E89678
:102910008FADE8971F928F93E5968FADE59790E086
:102920008053984F9F938F93E7968FADE7971F92B1
:102930008F93E6968FADE6971F928F9342E551E015
:102940005F934F931F9234E1F32EFF921F930F93E7
:102950000E943C17C8010E94EC0B8AE491E00E949F
:10296000EC0BD1011D92FA94E9F761E084E00E943A
:10297000610262E370E080E090E00E9403038091D6
:102980004A048B83E0E4F1E0FA83E98380914B040D
:1029900090914C049D838C8380914D0490914E04C2
:1029A000A0914F04B09150048E839F83A887B9876C
:1029B000BE016D5C7F4FC8010E944E0D2B96CCACC2
:1029C000DDACEEACFFAC2B970FB6F894DEBF0FBEBC
:1029D000CDBFA7019601C701B6010E94381C88230C
:1029E00009F4E3C167E272E0C8010E949E1F809172
:1029F0005304AE968FAFAE9742E351E0AD965FAF12
:102A00004EAFAD978091540490915504E0969FAFDE
:102A10008EAFE0978091560490915704A09158048E
:102A2000B0915904E4968CAF9DAFAEAFBFAFE497C1
:102A3000BE016D5C7F4FCE0185599F4F0E94CE0C29
:102A40002B968CAC9DACAEACBFAC2B97A501940182
:102A5000C501B4010E94381C8111CCC1F80101905C
:102A60000020E9F731977F01E01AF10A20E030E019
:102A700048EC52E4C501B4010E947B1B0E94931AEA
:102A8000CB0164E670E00E94041E9F938F93C50102
:102A9000B4010E94931A7F936F938AE592E09F930B
:102AA0008F93E00EF11EFF92EF920E94B41F0FB6BB
:102AB000F894DEBF0FBECDBFA2E3B0E060E070E0EF
:102AC000CB01F12CE12C30E430937C0020917A0092
:102AD000206420937A0020917A0026FDFCCF20917B
:102AE000780040917900542F422FF701EE0FFF1F1D
:102AF000E20DF31D80809180092C000CAA08BB0810
:102B0000681979098A099B094A01052E000CAA084F
:102B1000BB08680D791D8A1D9B1D51834083EFEF13
:102B2000EE1AFE0AFAE0EF16F10414F0F12CE12C93
:102B3000119751F62AE030E040E050E00E943A1E42
:102B4000B901330F880B990B0E94CB1A2BE337EC9A
:102B500040E85BE30E947B1B6B017C0120E030E0DE
:102B600040E450E40E94E81B2B013C01A7019601C0
:102B7000C701B6010E947B1B21EC3AEC4FE752E4FF
:102B80000E947B1B4B015C0124E734E24FEB50E4D5
:102B9000C301B2010E947B1B9B01AC01C501B401C2
:102BA0000E94211A4B015C012CEE31ED48E653E402
:102BB000C701B6010E947B1B9B01AC01C501B4019A
:102BC0000E94211A21E73DE74AE953E40E94221AB4
:102BD0004B015C018092490390924A03A0924B03FF
:102BE000B0924C03F80101900020E9F731977F0182
:102BF000E01AF10A20E030E048EC52E40E947B1B2E
:102C00000E94931ACB0164E670E00E94041E9F9319
:102C10008F93C501B4010E94931A7F936F9348E884
:102C200052E05F934F93E00EF11EFF92EF920E94ED
:102C3000B41FC8010E943D0C60E084E00E94610264
:102C40000FB6F894DEBF0FBECDBF20E030E04CE8F9
:102C500052E46091490370914A0380914B03909133
:102C60004C030E948E1A87FF1EC061E085E00E941F
:102C7000AD0261E085E00E9461028FE891E00E9470
:102C8000260260E27EE480E090E00E94030361E0BF
:102C900085E00E94AD0260E085E00E94610286E866
:102CA00091E00E944B0C80914603882309F43FC0B9
:102CB000109246030E94050B80FF04C082EA92E056
:102CC0000E943D0C86EB92E00E94EC0B6091470362
:102CD0007091480390E080E04AE00E94F90B89EC93
:102CE00092E00E943D0C0E94B40829833A834B83F2
:102CF0005C836D837E83C8010E940B04AB01BC0121
:102D0000485F584F6F4F7F4FCE01C3960E946E03AE
:102D100088AD9FA92EA93DA9E4E1F0E0FA83E983FB
:102D20003B832C839D838E83C8010E94F20987E731
:102D300091E00E944B0C6AE070E080E090E00E941D
:102D4000030383B7816083BF83B7817F846083BFC0
:102D500068EE73E080E090E00E94030385B7806630
:102D600085BF8F7D85BF889580E791E00E944B0CE1
:102D70006AE070E080E090E00E94030380E090E071
:102D8000892B09F4A9CD0E94A301882309F4A4CDBD
:102D90000E940000A1CD82EA91E00E943D0CCE018C
:102DA00085599F4F0E94140BC0CC20E030E048ECC6
:102DB00052E4C701B6010E947B1B0E94931ACB010B
:102DC00064E670E00E94041E9F938F93C701B601D2
:102DD0000E94931A7F936F9382E492E09F938F9364
:102DE0001F930F930E94B41F0FB6F894DEBF0FBE5F
:102DF000CDBFFDCDD8010D900020E9F7CD016EE6E5
:102E000072E001970E949E1F57CE80E291E090935E
:102E1000EE038093ED0310920C04E0910104F09115
:102E2000020490818091FB038095892380838091A7
:102E30000C04882349F0E091FD03F091FE038081AA
:102E40009091FB03892B8083E0910304F0910404AB
:102E500090818091FC0380958923808380910C046C
:102E6000882349F0E091FF03F09100048081909164
:102E7000FC03892B80830895AEE0B0E0E2E4F7E143
:102E80000C94F8190D891E898F89988D2EE02C835A
:102E90001A83098397FF02C080E090E801979E8320
:102EA0008D83AE01455E5F4F698D7A8DCE010196AF
:102EB0000E946C174D815E8157FD0AC02F813885B5
:102EC000421753070CF49A01020F131FF8011082E6
:102ED0002E96E4E00C94141AABE0B0E0E2E7F7E1E0
:102EE0000C94EA197C013B018A01FC0117821682CD
:102EF000838181FFC8C1CE0101965C01F7019381F6
:102F0000F30193FD859193FF81913F01882309F49B
:102F100053C1853239F493FD859193FF81913F012F
:102F2000853229F4B70190E00E945C19E7CF912C1B
:102F3000212C312CFFE1F31538F08B3211F190F494
:102F4000803209F1833229F137FC3CC020ED280F93
:102F50002A3050F536FE20C08AE0989E200D1124BC
:102F6000922E06C08D3291F0803371F7689430F85C
:102F7000F30193FD859193FF81913F018111DACF98
:102F800021C0689431F8689432F8F2CF689433F82D
:102F9000EFCF689434F8ECCFEAE02E9E200D112498
:102FA000222E689435F8E4CF8E3229F436FC04C121
:102FB000689436F8DDCF8C3619F4689437F8D8CF9A
:102FC0008836B1F2982F9F7D95549330E0F0833688
:102FD000A1F18337C1F1833509F063C02801F2E024
:102FE0004F0E511CF801C080D180692D70E036FC75
:102FF00002C06FEF7FEFC6010E9446194C01689432
:1030000037F882010AC00C5F1F4FFFE3F983882461
:103010008394912C6501E89437F833FE2DC0522C2F
:103020008114910471F5552009F468CFB70180E24D
:1030300090E00E945C195A94F6CFF8018081898350
:103040000E5F1F4FE4CF2801F2E04F0E511CF80134
:10305000C080D180692D70E036FC02C06FEF7FEF39
:10306000C6010E9451194C018201D5CFB70180E2FF
:1030700090E00E945C192A942814190409F0B0F712
:10308000CECFF60137FC859137FE81916F01B701F4
:1030900090E00E945C1951105A94F1E08F1A910847
:1030A000BFCF843619F0893609F077C0F80137FEB2
:1030B0006BC060817181828193810C5F1F4FF32D02
:1030C000FF763F2E97FF09C090958095709561958A
:1030D0007F4F8F4F9F4F689437F82AE030E0A5016B
:1030E0000E948C19C82ECA188C2C432C36FE0CC09A
:1030F000E89440F8C91440F434FE05C032FC03C023
:10310000F32DFE7E4F2E892C44FE95C0FE01EC0D62
:10311000F11D8081803309F087C0242D297E422E45
:10312000842D8870582E43FC95C040FE8FC09C2C87
:10313000821418F42C0C922C981844FE91C0B701FC
:1031400080E390E00E945C1942FE09C088E790E0AD
:1031500041FE02C088E590E0B7010E945C19C914E5
:1031600008F48AC0CA94D12C9FEFC91AD90ACA0C94
:10317000DB1CF60182916F01B70190E00E945C199F
:10318000AC14BD04B1F74FCF60817181072E000CE4
:10319000880B990B0E5F1F4F92CFD32CE894D4F875
:1031A0002AE030E0853739F1232D297FD22E8F3662
:1031B00001F148F48835A9F0F701868197812B96B3
:1031C000E2E10C94061A803749F08837A9F7D4FE5B
:1031D00002C06894D2F820E130E00DC06894D4F8C1
:1031E000F6CF34FE03C0822F8660D82E20E132E075
:1031F00002C028E030E0F801D7FE0FC06081718185
:10320000828193810C5F1F4FA5010E948C19C82EEB
:10321000CA183D2CE89437F867CF6081718190E03F
:1032200080E00E5F1F4FF0CF42FC02C0839478CF46
:103230008394839475CF842D867809F471CFF6CF6B
:10324000B70180E290E00E945C1983948214C0F37D
:10325000512C73CF522C5818821408F46ECFF8CF2B
:10326000842D867809F47BCF8BE241FE80E247FC17
:103270008DE2B70190E071CFB70180E390E00E944A
:103280005C199A946CCF8FEF9FEF99CFFC0105905A
:10329000615070400110D8F7809590958E0F9F1F58
:1032A0000895FC016150704001900110D8F780959D
:1032B00090958E0F9F1F08950F931F93CF93DF93C9
:1032C000182F092FEB018B8181FD09C01FEF0FEF34
:1032D000812F902FDF91CF911F910F91089582FF41
:1032E00014C02E813F818C819D81281739073CF4C1
:1032F000E881F981CF0101969983888310838E81BB
:103300009F8101969F838E83E3CFE885F985812F86
:103310000995892BA1F3DACFFA01AA27283051F1B8
:10332000203181F1E8946F936E7F6E5F7F4F8F4FF6
:103330009F4FAF4FB1E03ED0B4E03CD0670F781F55
:10334000891F9A1FA11D680F791F8A1F911DA11D3A
:103350006A0F711D811D911DA11D20D009F4689473
:103360003F912AE0269F11243019305D3193DEF61B
:10337000CF010895462F4770405D4193B3E00FD0D1
:10338000C9F7F6CF462F4F70405D4A3318F0495DBC
:1033900031FD4052419302D0A9F7EACFB4E0A6959F
:1033A0009795879577956795BA95C9F700976105C1
:1033B000710508959B01AC010A2E06945795479517
:1033C00037952795BA95C9F7620F731F841F951F0C
:1033D000A01D08952F923F924F925F926F927F921D
:1033E0008F929F92AF92BF92CF92DF92EF92FF9215
:1033F0000F931F93CF93DF93CDB7DEB7CA1BDB0BC1
:103400000FB6F894DEBF0FBECDBF09942A88398865
:1034100048885F846E847D848C849B84AA84B9846C
:10342000C884DF80EE80FD800C811B81AA81B98178
:10343000CE0FD11D0FB6F894DEBF0FBECDBFED018C
:1034400008955058BB27AA270E94391A0C94411B93
:103450000E94331B38F00E943A1B20F039F49F3F42
:1034600019F426F40C94301B0EF4E095E7FB0C9451
:103470002A1BE92F0E94521B58F3BA1762077307E1
:103480008407950720F079F4A6F50C94741B0EF4CC
:10349000E0950B2EBA2FA02D0B01B90190010C0164
:1034A000CA01A0011124FF27591B99F0593F50F47C
:1034B000503E68F11A16F040A22F232F342F4427D4
:1034C000585FF3CF469537952795A795F0405395CC
:1034D000C9F77EF41F16BA0B620B730B840BBAF09C
:1034E0009150A1F0FF0FBB1F661F771F881FC2F707
:1034F0000EC0BA0F621F731F841F48F4879577951B
:103500006795B795F7959E3F08F0B0CF9395880FD4
:1035100008F09927EE0F9795879508950E94061B4E
:1035200008F481E008950E949A1A6894B1110C94ED
:10353000751B08950E945A1B88F09F5798F0B92F69
:103540009927B751B0F0E1F0660F771F881F991FD8
:103550001AF0BA95C9F714C0B13091F00E94741BEB
:10356000B1E008950C94741B672F782F8827B85FFB
:1035700039F0B93FCCF3869577956795B395D9F730
:103580003EF490958095709561957F4F8F4F9F4F3A
:103590000895E89409C097FB3EF490958095709546
:1035A00061957F4F8F4F9F4F9923A9F0F92F96E98F
:1035B000BB279395F695879577956795B795F11104
:1035C000F8CFFAF4BB0F11F460FF1BC06F5F7F4FA1
:1035D0008F4F9F4F16C0882311F096E911C07723B3
:1035E00021F09EE8872F762F05C0662371F096E8BC
:1035F000862F70E060E02AF09A95660F771F881F8B
:10360000DAF7880F9695879597F90895990F00082E
:10361000550FAA0BE0E8FEEF16161706E807F907A4
:10362000C0F012161306E407F50798F0621B730B3F
:10363000840B950B39F40A2661F0232B242B252BC0
:1036400021F408950A2609F4A140A6958FEF811D63
:10365000811D089597F99F6780E870E060E0089504
:103660009FEF80EC089500240A941616170618069A
:103670000906089500240A94121613061406050676
:103680000895092E0394000C11F4882352F0BB0F07
:1036900040F4BF2B11F460FF04C06F5F7F4F8F4F6A
:1036A0009F4F089557FD9058440F551F59F05F3FA5
:1036B00071F04795880F97FB991F61F09F3F79F054
:1036C00087950895121613061406551FF2CF4695D6
:1036D000F1DF08C0161617061806991FF1CF869558
:1036E0007105610508940895E894BB27662777273C
:1036F000CB0197F908950E948E1B0C94411B0E94E8
:10370000331B38F00E943A1B20F0952311F00C94E3
:103710002A1B0C94301B11240C94751B0E94521B05
:1037200070F3959FC1F3950F50E0551F629FF00114
:10373000729FBB27F00DB11D639FAA27F00DB11D2D
:10374000AA1F649F6627B00DA11D661F829F2227B6
:10375000B00DA11D621F739FB00DA11D621F839F3D
:10376000A00D611D221F749F3327A00D611D231F13
:10377000849F600D211D822F762F6A2F11249F5761
:1037800050409AF0F1F088234AF0EE0FFF1FBB1F64
:10379000661F771F881F91505040A9F79E3F510523
:1037A00080F00C942A1B0C94751B5F3FE4F3983E49
:1037B000D4F3869577956795B795F795E7959F5FCD
:1037C000C1F7FE2B880F911D9695879597F908955F
:1037D000FA01EE0FFF1F309621053105A1F16115A9
:1037E000710561F48038BFE39B0749F16894903814
:1037F000810561F08038BFEF9B0741F099234AF5BE
:10380000FF3FE1053105210519F1E8940894E7959A
:10381000D901AA2329F4AB2FBE2FF85FD0F310C033
:10382000FF5F70F4A695E0F7F73950F019F0FF3A12
:1038300038F49F779F930DD00F9007FC9058089510
:1038400046F00C94301B60E070E080E89FE3089540
:103850004FE79F775F934F933F932F930E94E81C0E
:103860002F913F914F915F910E947B1B0C94451CBF
:103870000E94061B880B990B089529F416F00C94EE
:103880002A1B0C94741B0C94301B0E945A1BA8F327
:103890009638A0F707F80F92E8942BE33AEA48EB42
:1038A0005FE70E94911B0F920F920F924DB75EB788
:1038B0000F920E94301DE8E6F0E00E94771C4F91C5
:1038C0005F91EF91FF91E595EE1FFF1F49F0FE57C5
:1038D000E0684427EE0F441FFA95E1F74195550B38
:1038E0000E94AA1C0F9007FE0C949E1C0895DF9363
:1038F000CF931F930F93FF92EF92DF927B018C0186
:10390000689406C0DA2EEF010E948E1BFE01E89437
:10391000A5912591359145915591A6F3EF010E940E
:10392000391AFE019701A801DA9469F7DF90EF9048
:10393000FF900F911F91CF91DF9108959B01AC01F2
:1039400060E070E080E89FE30C94641D0C942A1BF7
:103950000C94D61D0E945A1BD8F39923C9F3940FD7
:10396000511DA3F39150504094F059F0882332F048
:10397000660F771F881F91505040C1F79E3F510539
:103980002CF7880F911D9695879597F908955F3FBD
:10399000ACF0983E9CF0BB27869577956795B795D8
:1039A00008F4B1609395C1F7BB0F58F711F460FFAD
:1039B000E8CF6F5F7F4F8F4F9F4FE3CF0C94751B06
:1039C00016F00C94D61D0C94301B68940C942A1B92
:1039D0000E945A1BA8F39923C1F3AEF3DF93CF9350
:1039E0001F930F93FF92C92FDD2788232AF0219779
:1039F000660F771F881FDAF720E030E040E85FEBC2
:103A00009FE3883920F0803E38F021968F770E941E
:103A1000221AE0E9F0E004C00E94221AEDEBF0E087
:103A20000E94771C8B01BE01EC01FB2E6F577109C0
:103A30007595771F880B990B0E94CB1A28E132E706
:103A400041E35FE30E948E1BAF2D9801AE01FF9012
:103A50000F911F91CF91DF910E94391A0C94411B55
:103A6000FA01DC01AA0FBB1F9B01AC01BF5728F470
:103A7000222733274427507820C0B75190F4AB2F2A
:103A80000024469537952795011CA395D2F3002075
:103A900071F0220F331F441FB395DAF30ED00C944C
:103AA000211A61307105A0E88A07B94630F49B01FC
:103AB000AC016627772788279078309621F02083FD
:103AC00031834283538308950E94781D0C94411BD7
:103AD0000E943A1B58F00E94331B40F029F45F3FCC
:103AE00029F00C942A1B51110C94751B0C94301B5B
:103AF0000E94521B68F39923B1F3552391F3951B50
:103B0000550BBB27AA2762177307840738F09F5FFE
:103B10005F4F220F331F441FAA1FA9F335D00E2E6B
:103B20003AF0E0E832D091505040E695001CCAF7D8
:103B30002BD0FE2F29D0660F771F881FBB1F26179B
:103B400037074807AB07B0E809F0BB0B802DBF0172
:103B5000FF2793585F4F3AF09E3F510578F00C9441
:103B60002A1B0C94751B5F3FE4F3983ED4F38695B3
:103B700077956795B795F7959F5FC9F7880F911D62
:103B80009695879597F90895E1E0660F771F881F4E
:103B9000BB1F621773078407BA0720F0621B730B01
:103BA000840BBA0BEE1F88F7E09508959F3F31F024
:103BB000915020F4879577956795B795880F911D5B
:103BC0009695879597F90895991B79E004C0991FF8
:103BD000961708F0961B881F7A95C9F78095089567
:103BE000AA1BBB1B51E107C0AA1FBB1FA617B70723
:103BF00010F0A61BB70B881F991F5A95A9F780953F
:103C00009095BC01CD01089597FB072E16F4009402
:103C100007D077FD09D00E94F01D07FC05D03EF4C7
:103C2000909581959F4F0895709561957F4F089568
:103C3000A1E21A2EAA1BBB1BFD010DC0AA1FBB1FB0
:103C4000EE1FFF1FA217B307E407F50720F0A21B22
:103C5000B30BE40BF50B661F771F881F991F1A948F
:103C600069F760957095809590959B01AC01BD01B9
:103C7000CF010895052E97FB1EF400940E94511E5B
:103C800057FD07D00E94181E07FC03D04EF40C9479
:103C9000511E50954095309521953F4F4F4F5F4FA6
:103CA000089590958095709561957F4F8F4F9F4FA8
:103CB0000895A29FB001B39FC001A39F700D811D05
:103CC0001124911DB29F700D811D1124911D089525
:103CD0000E94591EA59F900DB49F900DA49F800D2A
:103CE000911D11240895EE0FFF1F0590F491E02D12
:103CF00009940F931F93CF93DF938230910510F4B3
:103D000082E090E0E0915C04F0915D0430E020E01E
:103D1000B0E0A0E0309799F42115310509F44AC0CC
:103D2000281B390B24303105D8F58A819B81611518
:103D3000710589F1FB0193838283FE0111C04081EB
:103D400051810281138148175907E0F0481759073C
:103D500099F4109761F012960C93129713961C9396
:103D60003296CF01DF91CF911F910F91089500936B
:103D70005C0410935D04F4CF2115310551F0421716
:103D8000530738F0A901DB019A01BD01DF01F801F9
:103D9000C1CFEF01F9CF90935D0480935C04CDCF48
:103DA000FE01E20FF31F8193919322503109398371
:103DB0002883D7CF20915A0430915B04232B41F400
:103DC000209106013091070130935B0420935A043F
:103DD00020910401309105012115310541F42DB7E1
:103DE0003EB74091080150910901241B350BE09129
:103DF0005A04F0915B04E217F307A0F42E1B3F0B6B
:103E00002817390778F0AC014E5F5F4F241735074C
:103E100048F04E0F5F1F50935B0440935A04819308
:103E200091939FCFF0E0E0E09CCFCF93DF9300979A
:103E3000E9F0FC01329713821282A0915C04B091E8
:103E40005D04ED0130E020E01097A1F42081318184
:103E5000820F931F20915A0430915B042817390771
:103E600009F061C0F0935B04E0935A04DF91CF91B5
:103E70000895EA01CE17DF07E8F54A815B819E01CC
:103E800041155105B1F7E901FB83EA834991599145
:103E9000C40FD51FEC17FD0761F480819181029654
:103EA000840F951FE90199838883828193819B8385
:103EB0008A83F0E0E0E012968D919C911397009731
:103EC000B9F52D913C911197CD010296820F931F68
:103ED00020915A0430915B042817390739F630973E
:103EE00051F510925D0410925C04B0935B04A093B2
:103EF0005A04BCCFD383C28340815181840F951F64
:103F0000C817D90761F44E5F5F4F88819981480FC8
:103F1000591F518340838A819B819383828321151A
:103F2000310509F0B0CFF0935D04E0935C049ECFBF
:103F3000FD01DC01C0CF13821282D7CFFB01DC016F
:103F400001900D920020E1F70895FB01DC01415042
:103F5000504048F001900D920020C9F701C01D9219
:103F600041505040E0F70895AEE0B0E0EAEBFFE1E9
:103F70000C94F8190D891E8986E08C831A830983B5
:103F80008FEF9FE79E838D83AE01475E5F4F6F8902
:103F9000788DCE0101960E946C172F813885020F13
:103FA000131FF80110822E96E4E00C94141A10E00E
:103FB000C6EFD0E004C0FE010E94731E2196C73FE9
:083FC000D107C9F7F894FFCF07
:103FC8004103410300005E04800000000000D901A5
:103FD8002C0166014102970175018901000000006A
:103FE800E0068E04F4068004D506AA06C206000080
:103FF80000004008380F4108CE0C2B0E00000000CE
:1040080040083A0F41084E0DA70E0D0A00444854C7
:10401800313100444854313200444854323100446C
:1040280048543232004448543F005B324A005B48EF
:104038000041756720313720323032300030313A54
:1040480031343A30340052544320636F6D6D756ECD
:1040580069636174696F6E73206572726F72203D57
:104068002000525443206C6F737420636F6E66692E
:1040780064656E636520696E2074686520446174A8
:104088006554696D65210052544320776173206E31
:104098006F74206163746976656C792072756E6ED1
:1040A800696E672C207374617274696E67206E6F15
:1040B8007700525443206973206F6C6465722074D2
:1040C80068616E20636F6D70696C652074696D65D9
:1040D800212020285570646174696E6720446174DA
:1040E8006554696D6529004572726F722072656149
:1040F80064696E672074656D706572617475726548
:10410800210054656D70657261747572653A202579
:10411800642E25303264C2B04300202048756D6992
:10412800646974793A2025642E2530326400202091
:104138004572726F722072656164696E6720687576
:104148006D696469747921002020536F696C204D72
:104158006F6973747572653A2025642E2530326450
:104168002500616C61726D204F4E4520747269673D
:104178006765726564003E3E496E74657275707459
:0C41880020436F756E743A20003C3C0030
:107800000C94343C0C94513C0C94513C0C94513CE1
:107810000C94513C0C94513C0C94513C0C94513CB4
:107820000C94513C0C94513C0C94513C0C94513CA4
:107830000C94513C0C94513C0C94513C0C94513C94
:107840000C94513C0C94513C0C94513C0C94513C84
:107850000C94513C0C94513C0C94513C0C94513C74
:107860000C94513C0C94513C11241FBECFEFD8E036
:10787000DEBFCDBF11E0A0E0B1E0ECE9FFE702C060
:1078800005900D92A230B107D9F712E0A2E0B1E065
:1078900001C01D92AD30B107E1F70E942D3D0C945F
:1078A000CC3F0C94003C982F959595959595959582
:1078B000905D8F708A307CF0282F295A8091C0000B
:1078C00085FFFCCF9093C6008091C00085FFFCCF60
:1078D0002093C6000895282F205DF0CF982F809127
:1078E000C00085FFFCCF9093C6000895EF92FF92F1
:1078F0000F931F93EE24FF2487018091C00087FD22
:1079000017C00894E11CF11C011D111D81E4E8164B
:1079100082E4F8068FE0080780E0180770F3E09132
:107920000401F091050109958091C00087FFE9CF1E
:107930008091C6001F910F91FF90EF9008950E94D3
:10794000763C982F8091C00085FFFCCF9093C600B5
:1079500091362CF490330CF09053892F089597555D
:10796000892F08951F930E949F3C182F0E949F3CCF
:107970001295107F810F1F9108951F93182F882350
:1079800021F00E94763C1150E1F71F9108951F935A
:10799000182F0E94763C803249F0809103018F5F5E
:1079A000809303018530C1F01F9108958091C0003C
:1079B00085FFFCCF84E18093C6008091C00085FFE5
:1079C000FCCF1093C6008091C00085FFFCCF80E102
:1079D0008093C6001F910895E0910401F091050184
:1079E00009951F9108950E94763C803241F0809164
:1079F00003018F5F80930301853081F008958091AA
:107A0000C00085FFFCCF84E18093C6008091C00058
:107A100085FFFCCF80E18093C6000895E0910401CA
:107A2000F09105010995089540E951E08823A1F0FE
:107A30002D9A28EE33E0FA013197F1F721503040CA
:107A4000D1F72D9828EE33E0FA013197F1F7215064
:107A50003040D1F7815061F708953F924F925F9285
:107A60006F927F928F929F92AF92BF92CF92DF924E
:107A7000EF92FF920F931F93CF93DF93000080E16B
:107A80008093C4001092C50088E18093C10086E015
:107A90008093C2005098589A259A81E00E94143D24
:107AA00024E1F22E9EE1E92E85E9D82E0FE0C02ECA
:107AB00010E1B12EAA24A394B1E49B2EA6E58A2E50
:107AC000F2E57F2EE0E26E2E79E4572E63E5462E36
:107AD00050E5352E0E94763C8033B1F18133B9F107
:107AE000803409F46FC0813409F476C0823409F41B
:107AF00085C0853409F488C0803531F1823521F1A3
:107B0000813511F1853509F485C0863509F48DC0BC
:107B1000843609F496C0843709F403C1853709F423
:107B200072C1863709F466C0809103018F5F80932C
:107B30000301853079F6E0910401F0910501099582
:107B40000E94763C803351F60E94F33CC3CF0E94E2
:107B5000763C803249F78091C00085FFFCCFF092DF
:107B6000C6008091C00085FFFCCF9092C600809136
:107B7000C00085FFFCCF8092C6008091C00085FFC9
:107B8000FCCF7092C6008091C00085FFFCCF609250
:107B9000C6008091C00085FFFCCF5092C600809146
:107BA000C00085FFFCCF4092C6008091C00085FFD9
:107BB000FCCF3092C6008091C00085FFFCCFB09210
:107BC000C60088CF0E94763C863808F4BDCF0E945C
:107BD000763C0E94F33C7ECF0E94763C803809F4CC
:107BE0009CC0813809F40BC1823809F43CC1883942
:107BF00009F48FC080E00E94C73C6CCF84E10E94F2
:107C0000BD3C0E94F33C66CF85E00E94BD3C0E94D3
:107C1000F33C60CF0E94763C809306010E94763C44
:107C2000809307010E94F33C55CF0E94763C80333D
:107C300009F41DC183E00E94BD3C80E00E94C73C66
:107C400049CF0E94763C809309020E94763C809343
:107C5000080280910C028E7F80930C020E94763C79
:107C6000853409F415C18091080290910902892B8D
:107C700089F000E010E00E94763CF801E85FFE4FDA
:107C800080830F5F1F4F80910802909109020817AF
:107C9000190788F30E94763C803209F045CF809125
:107CA0000C0280FF01C16091060170910701660F0F
:107CB000771F7093070160930601A0910802B091AD
:107CC00009021097C9F0E8E0F1E09B01AD014E0F09
:107CD0005F1FF999FECF32BD21BD819180BDFA9A17
:107CE000F99A2F5F3F4FE417F50799F76A0F7B1F4B
:107CF00070930701609306018091C00085FFFCCF5F
:107D0000F092C6008091C00085FFFCCFB092C60003
:107D1000E1CE83E00E94C73CDDCE82E00E94C73CFA
:107D2000D9CE0E94763C809309020E94763C8093D3
:107D300008028091060190910701880F991F909386
:107D40000701809306010E94763C853409F4A6C0A1
:107D500080910C028E7F80930C020E94763C8032D0
:107D600009F0B8CE8091C00085FFFCCFF092C6002C
:107D7000609108027091090261157105B9F140E046
:107D800050E080910C02A82FA170B82FB27011C0E2
:107D9000BB2309F45CC0E0910601F0910701319624
:107DA000F0930701E09306014F5F5F4F46175707B7
:107DB000E8F4AA2369F3F999FECF209106013091E6
:107DC000070132BD21BDF89A90B58091C00085FFB2
:107DD000FCCF9093C6002F5F3F4F30930701209355
:107DE00006014F5F5F4F4617570718F38091C00099
:107DF00085FDE5CE8091C00085FFF8CFE0CE81E023
:107E00000E94C73C67CE0E94763C803209F08CCE3F
:107E10008091C00085FFFCCFF092C6008091C00029
:107E200085FFFCCFE092C6008091C00085FFFCCFAB
:107E3000D092C6008091C00085FFFCCFC092C600E2
:107E40008091C00085FFFCCFB092C60043CEE09188
:107E50000601F091070194918091C00085FFFCCF4D
:107E60009093C6009CCF80E10E94C73C33CE0E9415
:107E7000763C0E94763C182F0E94763C112309F430
:107E800083C0113009F484C08FE00E94C73C22CE29
:107E900080910C02816080930C02E5CE80910C02EF
:107EA000816080930C0259CF809107018823880F4D
:107EB000880B8A2180930B02809106019091070123
:107EC000880F991F90930701809306018091080203
:107ED00080FF09C080910802909109020196909359
:107EE000090280930802F894F999FECF1127E091D6
:107EF0000601F0910701C8E0D1E08091080290915D
:107F00000902103091F40091570001700130D9F34B
:107F100003E000935700E89500915700017001308D
:107F2000D9F301E100935700E89509901990009169
:107F3000570001700130D9F301E000935700E89534
:107F40001395103498F011270091570001700130FB
:107F5000D9F305E000935700E895009157000170B0
:107F60000130D9F301E100935700E895329602976A
:107F700009F0C7CF103011F00296E5CF112480919F
:107F8000C00085FFB9CEBCCE8EE10E94C73CA2CD19
:0C7F900085E90E94C73C9ECDF894FFCF0D
:027F9C00800063
:040000030000780081
:00000001FF